S02400006275696C642F62696E2F44656275672D57696E2F4B4C32375A3634342E73726563F0
S11300000030002085050000C5050000C50500007E
S113001000000000000000000000000000000000DC
S1130020000000000000000000000000C505000002
S11300300000000000000000C5050000C505000028
S1130040C5050000C5050000C5050000C505000084
S1130050C5050000C5050000C5050000C505000074
S1130060C5050000C5050000C5050000C505000064
S1130070C5050000C5050000C5050000C505000054
S1130080C5050000C5050000C5050000C505000044
S1130090C5050000C5050000C5050000C505000034
S11300A0C5050000C5050000C5050000C505000024
S11300B0C5050000C5050000C5050000C505000014
S1130400FFFFFFFFFFFFFFFFFFFFFFFFFE3DFFFFBB
S113041010B5064C2378002B07D1054B002B02D0D6
S1130420044800E000BF0123237010BD34F4FF1F13
S113043000000000280B000008B5084B002B03D077
S11304400748084900E000BF07480368002B00D1B3
S113045008BD064B002BFBD09847F9E700000000CD
S1130460280B000038F4FF1F30F4FF1F00000000C9
S1130470164B002B00D1144B9D46402292029A1A2F
S1130480924600218B460F461348144A121A00F074
S1130490E3F90F4B002B00D098470E4B002B00D0F4
S11304A098470020002104000D000D48002802D0C8
S11304B00C4800F0A7FA00F0ABF92000290000F086
S11304C08BF900F095F9C0460000080000300020C8
S11304D0000000000000000034F4FF1F50F4FF1F70
S11304E0050A0000150A0000F8201349134A800188
S11304F08B5870B5034380208B508021104E114BD4
S11305004000F0645A6909030A435A619960002162
S113051080250D4A596050630C4AAD0154692C433F
S113052054618024B0645869E4022043586199609E
S11305305C609160556070BD00700440381000002C
S113054000A0044040F00F400090044000F00F4031
S1130550002382B00093009A094B9A420DD80023DD
S11305600193F423019AFF339A4203D8C046019BB6
S11305700133F5E7009B0133ECE702B07047C04656
S1130580E703000072B6094809490A4A02600A6092
S113059000F01CF862B60849084A094B9B1A03DDAF
S11305A0043BC858D050FBDCFFF762FF80E100E059
S11305B080E200E0FFFFFFFF540B000000F0FF1F8C
S11305C034F4FF1F00480047C5050000082110B59A
S11305D0164B9A780A4202D09A780A439A70882273
S11305E000212A20124B52019950124A1070802087
S11305F0114A400298501868104A024010481A6084
S11306001C58104A2240C024A40422431A508022B9
S11306100D4B19721A767F3A19705A700B4A117081
S11306200C2299791142FBD110BDC04600D007407D
S11306300070044000E0074044100000FFFFF3FF97
S113064004100000FFFFFBC00040064000500640BD
S113065008B50C23114A9179194214D091791940A3
S1130660042909D1117A0B3B0907490F8B400C4827
S1130670191C00F01FF807E092791340082B0CD1E5
S11306808020000200E00748074B084AD158090FB0
S1130690013100F00FF8064B186008BD0040064019
S11306A000127A00006CDC02441000000070044068
S11306B000F0FF1F002243088B4274D303098B42CE
S11306C05FD3030A8B4244D3030B8B4228D3030C1E
S11306D08B420DD3FF22090212BA030C8B4202D3C0
S11306E01212090265D0030B8B4219D300E0090AE8
S11306F0C30B8B4201D3CB03C01A5241830B8B42F1
S113070001D38B03C01A5241430B8B4201D34B03D9
S1130710C01A5241030B8B4201D30B03C01A52413E
S1130720C30A8B4201D3CB02C01A5241830A8B42C3
S113073001D38B02C01A5241430A8B4201D34B02AC
S1130740C01A5241030A8B4201D30B02C01A524110
S1130750CDD2C3098B4201D3CB01C01A52418309C4
S11307608B4201D38B01C01A524143098B4201D3FE
S11307704B01C01A524103098B4201D30B01C01A29
S11307805241C3088B4201D3CB00C01A52418308A3
S11307908B4201D38B00C01A524143088B4201D3D0
S11307A04B00C01A5241411A00D201465241104630
S11307B07047FFE701B5002000F00CF802BDC04609
S11307C00029F7D003B5FFF775FF0EBC4243891A21
S11307D01847C0467047C04608B5FFF785FE80221B
S11307E0024B1203DA60FFF7B3FEF8E740F00F4064
S11307F010B50021041C00F081F8044B1868C36B89
S1130800002B00D09847201C00F088F9240B00002E
S113081070B50D4E0D4D0024AD1BAD1005D0A300D9
S1130820F35801349847A542F9D100F07DF9084EF8
S1130830084D0024AD1BAD1005D0A300F3580134BE
S11308409847A542F9D170BD480B0000480B000041
S1130850480B0000500B000070B583073FD0541EB6
S1130860002A3BD0CEB2031C032503E0621E002CF9
S113087034D0141C01335A1E16702B42F6D1032CAB
S113088024D9FF250D402A0215432A0415430F2CB1
S113089011D9261C103E3609013636011A1C9B1943
S11308A0156055609560D56010329342F8D10F22DF
S11308B01440032C0AD9261FB6080136B6001A1CA8
S11308C09B1920C29342FCD103221440002C05D072
S11308D0C9B21C1919700133A342FBD170BD141C99
S11308E0031CCCE708B5034B002B02D0024800F0F0
S11308F089F808BD00000000150A0000F0B556464E
S11309005F464D464446F0B40E1C3C4B87B01B6812
S1130910019003934933FF330493A422039B5200B1
S11309209F58002F4CD0049B984600239B46C42319
S11309305B009C46BC4463460293C6235B009A4614
S11309407C68BA44A5007D19013C08D526E06B1DDE
S1130950FF331B68B34204D0043D013C1ED3002E78
S1130960F5D17B686A68013BA3423AD05B466B6071
S1130970002AF1D07B68029999460123A3400968B3
S11309800591194223D190477B684B45C5D1434615
S11309901B68BB42C1D1043D013CE0D2184B002B83
S11309A00ED07B68002B23D13B68002B24D0424619
S11309B0381C136000E000BF43461F68002FB6D107
S11309C007B03CBC90469946A246AB46F0BD5146A2
S11309D00968194207D12B1C843319680198904780
S11309E0D2E77C60C4E72B1C843318689047CBE7BC
S11309F03B68B8461F1CE1E70023FAE7240B00001C
S1130A000000000008B5011C00220020002300F0B3
S1130A101BF808BD38B5094B094CE41AA41009D0D9
S1130A20084AA518AD00ED182B68013C9847043D11
S1130A30002CF9D100F07EF838BDC046500B000000
S1130A40540B0000FFFFFF3FF8B544465F4656468F
S1130A504D469B462F4BF0B41C68A4235B00051C39
S1130A60E0580E1C904600284BD043681F2B0DDC29
S1130A705C1C002D21D102339B0044601E500020D9
S1130A803CBC90469946A246AB46F8BD224B002B8F
S1130A903CD0C820400000E000BF002836D0A4228B
S1130AA000235200A15843600160A050403283509B
S1130AB0043283500124002DDDD09A0091468144F4
S1130AC0424688214F467A50C422520090468044C0
S1130AD042468739994012688A460A4394464246F8
S1130AE061461160842249465F4652008F50022DB0
S1130AF0C1D1021C55468D32FF3211680D43156079
S1130B00B9E7201C4D30FF30E050AEE701204042F1
S1130B10B6E7C046240B000000000000FEE7C04614
S1130B204300000008F0FF1FF8B5C046F8BC08BC3D
S1130B309E467047F8B5C046F8BC08BC9E46704750
S10B0B4030F9FF7F0100000001
S10B0B48E50800003904000077
S1070B501104000088
S1130B54006CDC020000000000000000F4F2FF1F3F
S1130B645CF3FF1FC4F3FF1F00000000000000003B
S1130B74000000000000000000000000000000006D
S1130B84000000000000000000000000200B000032
S1130B94000000000000000000000000000000004D
S1130BA4000000000000000000000000000000003D
S1130BB4000000000000000000000000000000002D
S1130BC4000000000000000000000000000000001D
S1130BD4000000000000000000000000000000000D
S1130BE400000000000000000000000000000000FD
S1130BF400000000000000000000000000000000ED
S1130C0401000000000000000E33CDAB34126DE689
S1130C14ECDE05000B0000000000000000000000F2
S1130C2400000000000000000000000000000000BC
S1130C3400000000000000000000000000000000AC
S1130C44000000000000000000000000000000009C
S1130C54000000000000000000000000000000008C
S1070F840000000065
S903058572
